{
  "_format": "hh-sol-artifact-1",
  "contractName": "ERC721_WEBGLSmartContract",
  "sourceName": "src/contracts/ERC721_WEBGL/ERC721_WEBGLSmartContract.sol",
  "abi": [
    {
      "inputs": [
        {
          "internalType": "string",
          "name": "_name",
          "type": "string"
        },
        {
          "internalType": "string",
          "name": "_symbol",
          "type": "string"
        },
        {
          "internalType": "string[]",
          "name": "_plot_name",
          "type": "string[]"
        },
        {
          "internalType": "uint256[]",
          "name": "_cost",
          "type": "uint256[]"
        },
        {
          "internalType": "int256[]",
          "name": "_posX",
          "type": "int256[]"
        },
        {
          "internalType": "int256[]",
          "name": "_posY",
          "type": "int256[]"
        },
        {
          "internalType": "int256[]",
          "name": "_posZ",
          "type": "int256[]"
        },
        {
          "internalType": "uint256[]",
          "name": "_sizeX",
          "type": "uint256[]"
        },
        {
          "internalType": "uint256[]",
          "name": "_sizeY",
          "type": "uint256[]"
        },
        {
          "internalType": "uint256[]",
          "name": "_sizeZ",
          "type": "uint256[]"
        }
      ],
      "stateMutability": "nonpayable",
      "type": "constructor"
    },
    {
      "anonymous": false,
      "inputs": [
        {
          "indexed": true,
          "internalType": "address",
          "name": "owner",
          "type": "address"
        },
        {
          "indexed": true,
          "internalType": "address",
          "name": "approved",
          "type": "address"
        },
        {
          "indexed": true,
          "internalType": "uint256",
          "name": "tokenId",
          "type": "uint256"
        }
      ],
      "name": "Approval",
      "type": "event"
    },
    {
      "anonymous": false,
      "inputs": [
        {
          "indexed": true,
          "internalType": "address",
          "name": "owner",
          "type": "address"
        },
        {
          "indexed": true,
          "internalType": "address",
          "name": "operator",
          "type": "address"
        },
        {
          "indexed": false,
          "internalType": "bool",
          "name": "approved",
          "type": "bool"
        }
      ],
      "name": "ApprovalForAll",
      "type": "event"
    },
    {
      "anonymous": false,
      "inputs": [
        {
          "indexed": true,
          "internalType": "address",
          "name": "from",
          "type": "address"
        },
        {
          "indexed": true,
          "internalType": "address",
          "name": "to",
          "type": "address"
        },
        {
          "indexed": true,
          "internalType": "uint256",
          "name": "tokenId",
          "type": "uint256"
        }
      ],
      "name": "Transfer",
      "type": "event"
    },
    {
      "inputs": [],
      "name": "_tokenIds",
      "outputs": [
        {
          "internalType": "int256",
          "name": "",
          "type": "int256"
        }
      ],
      "stateMutability": "view",
      "type": "function"
    },
    {
      "inputs": [
        {
          "internalType": "address",
          "name": "to",
          "type": "address"
        },
        {
          "internalType": "uint256",
          "name": "tokenId",
          "type": "uint256"
        }
      ],
      "name": "approve",
      "outputs": [],
      "stateMutability": "nonpayable",
      "type": "function"
    },
    {
      "inputs": [
        {
          "internalType": "address",
          "name": "owner",
          "type": "address"
        }
      ],
      "name": "balanceOf",
      "outputs": [
        {
          "internalType": "uint256",
          "name": "",
          "type": "uint256"
        }
      ],
      "stateMutability": "view",
      "type": "function"
    },
    {
      "inputs": [
        {
          "internalType": "uint256",
          "name": "tokenId",
          "type": "uint256"
        }
      ],
      "name": "getApproved",
      "outputs": [
        {
          "internalType": "address",
          "name": "",
          "type": "address"
        }
      ],
      "stateMutability": "view",
      "type": "function"
    },
    {
      "inputs": [
        {
          "internalType": "uint256",
          "name": "_id",
          "type": "uint256"
        }
      ],
      "name": "getPlot",
      "outputs": [
        {
          "components": [
            {
              "internalType": "address",
              "name": "currentOwner",
              "type": "address"
            },
            {
              "internalType": "address",
              "name": "previousOwner",
              "type": "address"
            },
            {
              "internalType": "address",
              "name": "minter",
              "type": "address"
            },
            {
              "internalType": "uint256",
              "name": "plotID",
              "type": "uint256"
            },
            {
              "internalType": "string",
              "name": "name",
              "type": "string"
            },
            {
              "internalType": "uint256",
              "name": "cost",
              "type": "uint256"
            },
            {
              "internalType": "int256",
              "name": "posX",
              "type": "int256"
            },
            {
              "internalType": "int256",
              "name": "posY",
              "type": "int256"
            },
            {
              "internalType": "int256",
              "name": "posZ",
              "type": "int256"
            },
            {
              "internalType": "uint256",
              "name": "sizeX",
              "type": "uint256"
            },
            {
              "internalType": "uint256",
              "name": "sizeY",
              "type": "uint256"
            },
            {
              "internalType": "uint256",
              "name": "sizeZ",
              "type": "uint256"
            }
          ],
          "internalType": "struct ERC721_WEBGLSmartContract.Plot",
          "name": "",
          "type": "tuple"
        }
      ],
      "stateMutability": "view",
      "type": "function"
    },
    {
      "inputs": [],
      "name": "getPlots",
      "outputs": [
        {
          "components": [
            {
              "internalType": "address",
              "name": "currentOwner",
              "type": "address"
            },
            {
              "internalType": "address",
              "name": "previousOwner",
              "type": "address"
            },
            {
              "internalType": "address",
              "name": "minter",
              "type": "address"
            },
            {
              "internalType": "uint256",
              "name": "plotID",
              "type": "uint256"
            },
            {
              "internalType": "string",
              "name": "name",
              "type": "string"
            },
            {
              "internalType": "uint256",
              "name": "cost",
              "type": "uint256"
            },
            {
              "internalType": "int256",
              "name": "posX",
              "type": "int256"
            },
            {
              "internalType": "int256",
              "name": "posY",
              "type": "int256"
            },
            {
              "internalType": "int256",
              "name": "posZ",
              "type": "int256"
            },
            {
              "internalType": "uint256",
              "name": "sizeX",
              "type": "uint256"
            },
            {
              "internalType": "uint256",
              "name": "sizeY",
              "type": "uint256"
            },
            {
              "internalType": "uint256",
              "name": "sizeZ",
              "type": "uint256"
            }
          ],
          "internalType": "struct ERC721_WEBGLSmartContract.Plot[]",
          "name": "",
          "type": "tuple[]"
        }
      ],
      "stateMutability": "view",
      "type": "function"
    },
    {
      "inputs": [
        {
          "internalType": "address",
          "name": "owner",
          "type": "address"
        },
        {
          "internalType": "address",
          "name": "operator",
          "type": "address"
        }
      ],
      "name": "isApprovedForAll",
      "outputs": [
        {
          "internalType": "bool",
          "name": "",
          "type": "bool"
        }
      ],
      "stateMutability": "view",
      "type": "function"
    },
    {
      "inputs": [],
      "name": "maxSupply",
      "outputs": [
        {
          "internalType": "uint256",
          "name": "",
          "type": "uint256"
        }
      ],
      "stateMutability": "view",
      "type": "function"
    },
    {
      "inputs": [
        {
          "internalType": "uint256",
          "name": "_id",
          "type": "uint256"
        }
      ],
      "name": "mint",
      "outputs": [],
      "stateMutability": "payable",
      "type": "function"
    },
    {
      "inputs": [],
      "name": "name",
      "outputs": [
        {
          "internalType": "string",
          "name": "",
          "type": "string"
        }
      ],
      "stateMutability": "view",
      "type": "function"
    },
    {
      "inputs": [
        {
          "internalType": "uint256",
          "name": "tokenId",
          "type": "uint256"
        }
      ],
      "name": "ownerOf",
      "outputs": [
        {
          "internalType": "address",
          "name": "",
          "type": "address"
        }
      ],
      "stateMutability": "view",
      "type": "function"
    },
    {
      "inputs": [
        {
          "internalType": "uint256",
          "name": "",
          "type": "uint256"
        }
      ],
      "name": "plots",
      "outputs": [
        {
          "internalType": "address",
          "name": "currentOwner",
          "type": "address"
        },
        {
          "internalType": "address",
          "name": "previousOwner",
          "type": "address"
        },
        {
          "internalType": "address",
          "name": "minter",
          "type": "address"
        },
        {
          "internalType": "uint256",
          "name": "plotID",
          "type": "uint256"
        },
        {
          "internalType": "string",
          "name": "name",
          "type": "string"
        },
        {
          "internalType": "uint256",
          "name": "cost",
          "type": "uint256"
        },
        {
          "internalType": "int256",
          "name": "posX",
          "type": "int256"
        },
        {
          "internalType": "int256",
          "name": "posY",
          "type": "int256"
        },
        {
          "internalType": "int256",
          "name": "posZ",
          "type": "int256"
        },
        {
          "internalType": "uint256",
          "name": "sizeX",
          "type": "uint256"
        },
        {
          "internalType": "uint256",
          "name": "sizeY",
          "type": "uint256"
        },
        {
          "internalType": "uint256",
          "name": "sizeZ",
          "type": "uint256"
        }
      ],
      "stateMutability": "view",
      "type": "function"
    },
    {
      "inputs": [
        {
          "internalType": "address",
          "name": "from",
          "type": "address"
        },
        {
          "internalType": "address",
          "name": "to",
          "type": "address"
        },
        {
          "internalType": "uint256",
          "name": "tokenId",
          "type": "uint256"
        }
      ],
      "name": "safeTransferFrom",
      "outputs": [],
      "stateMutability": "nonpayable",
      "type": "function"
    },
    {
      "inputs": [
        {
          "internalType": "address",
          "name": "from",
          "type": "address"
        },
        {
          "internalType": "address",
          "name": "to",
          "type": "address"
        },
        {
          "internalType": "uint256",
          "name": "tokenId",
          "type": "uint256"
        },
        {
          "internalType": "bytes",
          "name": "_data",
          "type": "bytes"
        }
      ],
      "name": "safeTransferFrom",
      "outputs": [],
      "stateMutability": "nonpayable",
      "type": "function"
    },
    {
      "inputs": [
        {
          "internalType": "address",
          "name": "operator",
          "type": "address"
        },
        {
          "internalType": "bool",
          "name": "approved",
          "type": "bool"
        }
      ],
      "name": "setApprovalForAll",
      "outputs": [],
      "stateMutability": "nonpayable",
      "type": "function"
    },
    {
      "inputs": [
        {
          "internalType": "bytes4",
          "name": "interfaceId",
          "type": "bytes4"
        }
      ],
      "name": "supportsInterface",
      "outputs": [
        {
          "internalType": "bool",
          "name": "",
          "type": "bool"
        }
      ],
      "stateMutability": "view",
      "type": "function"
    },
    {
      "inputs": [],
      "name": "symbol",
      "outputs": [
        {
          "internalType": "string",
          "name": "",
          "type": "string"
        }
      ],
      "stateMutability": "view",
      "type": "function"
    },
    {
      "inputs": [
        {
          "internalType": "uint256",
          "name": "tokenId",
          "type": "uint256"
        }
      ],
      "name": "tokenURI",
      "outputs": [
        {
          "internalType": "string",
          "name": "",
          "type": "string"
        }
      ],
      "stateMutability": "view",
      "type": "function"
    },
    {
      "inputs": [],
      "name": "totalSupply",
      "outputs": [
        {
          "internalType": "uint256",
          "name": "",
          "type": "uint256"
        }
      ],
      "stateMutability": "view",
      "type": "function"
    },
    {
      "inputs": [
        {
          "internalType": "address",
          "name": "from",
          "type": "address"
        },
        {
          "internalType": "address",
          "name": "to",
          "type": "address"
        },
        {
          "internalType": "uint256",
          "name": "tokenId",
          "type": "uint256"
        }
      ],
      "name": "transferFrom",
      "outputs": [],
      "stateMutability": "nonpayable",
      "type": "function"
    }
  ],
  "bytecode": "0x60806040526000600655600060075560006008553480156200002057600080fd5b50604051620044bf380380620044bf83398181016040528101906200004691906200092c565b8989816000908051906020019062000060929190620003c1565b50806001908051906020019062000079929190620003c1565b50505060005b8851811015620003b057600060016007546200009c919062000b87565b9050806007819055506009604051806101800160405280600073ffffffffffffffffffffffffffffffffffffffff168152602001600073ffffffffffffffffffffffffffffffffffffffff168152602001600073ffffffffffffffffffffffffffffffffffffffff1681526020018381526020018c858151811062000126576200012562000be4565b5b602002602001015181526020018b858151811062000149576200014862000be4565b5b602002602001015181526020018a85815181106200016c576200016b62000be4565b5b602002602001015181526020018985815181106200018f576200018e62000be4565b5b60200260200101518152602001888581518110620001b257620001b162000be4565b5b60200260200101518152602001878581518110620001d557620001d462000be4565b5b60200260200101518152602001868581518110620001f857620001f762000be4565b5b602002602001015181526020018585815181106200021b576200021a62000be4565b5b602002602001015181525090806001815401808255809150506001900390600052602060002090600c020160009091909190915060008201518160000160006101000a81548173ffffffffffffffffffffffffffffffffffffffff021916908373ffffffffffffffffffffffffffffffffffffffff16021790555060208201518160010160006101000a81548173ffffffffffffffffffffffffffffffffffffffff021916908373ffffffffffffffffffffffffffffffffffffffff16021790555060408201518160020160006101000a81548173ffffffffffffffffffffffffffffffffffffffff021916908373ffffffffffffffffffffffffffffffffffffffff1602179055506060820151816003015560808201518160040190805190602001906200034c929190620003c1565b5060a0820151816005015560c0820151816006015560e082015181600701556101008201518160080155610120820151816009015561014082015181600a015561016082015181600b01555050508080620003a79062000c13565b9150506200007f565b505050505050505050505062000cc6565b828054620003cf9062000c90565b90600052602060002090601f016020900481019282620003f357600085556200043f565b82601f106200040e57805160ff19168380011785556200043f565b828001600101855582156200043f579182015b828111156200043e57825182559160200191906001019062000421565b5b5090506200044e919062000452565b5090565b5b808211156200046d57600081600090555060010162000453565b5090565b6000604051905090565b600080fd5b600080fd5b600080fd5b600080fd5b6000601f19601f8301169050919050565b7f4e487b7100000000000000000000000000000000000000000000000000000000600052604160045260246000fd5b620004da826200048f565b810181811067ffffffffffffffff82111715620004fc57620004fb620004a0565b5b80604052505050565b60006200051162000471565b90506200051f8282620004cf565b919050565b600067ffffffffffffffff821115620005425762000541620004a0565b5b6200054d826200048f565b9050602081019050919050565b60005b838110156200057a5780820151818401526020810190506200055d565b838111156200058a576000848401525b50505050565b6000620005a7620005a18462000524565b62000505565b905082815260208101848484011115620005c657620005c56200048a565b5b620005d38482856200055a565b509392505050565b600082601f830112620005f357620005f262000485565b5b81516200060584826020860162000590565b91505092915050565b600067ffffffffffffffff8211156200062c576200062b620004a0565b5b602082029050602081019050919050565b600080fd5b60006200065962000653846200060e565b62000505565b905080838252602082019050602084028301858111156200067f576200067e6200063d565b5b835b81811015620006cd57805167ffffffffffffffff811115620006a857620006a762000485565b5b808601620006b78982620005db565b8552602085019450505060208101905062000681565b5050509392505050565b600082601f830112620006ef57620006ee62000485565b5b81516200070184826020860162000642565b91505092915050565b600067ffffffffffffffff821115620007285762000727620004a0565b5b602082029050602081019050919050565b6000819050919050565b6200074e8162000739565b81146200075a57600080fd5b50565b6000815190506200076e8162000743565b92915050565b60006200078b62000785846200070a565b62000505565b90508083825260208201905060208402830185811115620007b157620007b06200063d565b5b835b81811015620007de5780620007c988826200075d565b845260208401935050602081019050620007b3565b5050509392505050565b600082601f8301126200080057620007ff62000485565b5b81516200081284826020860162000774565b91505092915050565b600067ffffffffffffffff821115620008395762000838620004a0565b5b602082029050602081019050919050565b6000819050919050565b6200085f816200084a565b81146200086b57600080fd5b50565b6000815190506200087f8162000854565b92915050565b60006200089c62000896846200081b565b62000505565b90508083825260208201905060208402830185811115620008c257620008c16200063d565b5b835b81811015620008ef5780620008da88826200086e565b845260208401935050602081019050620008c4565b5050509392505050565b600082601f83011262000911576200091062000485565b5b81516200092384826020860162000885565b91505092915050565b6000806000806000806000806000806101408b8d0312156200095357620009526200047b565b5b60008b015167ffffffffffffffff81111562000974576200097362000480565b5b620009828d828e01620005db565b9a505060208b015167ffffffffffffffff811115620009a657620009a562000480565b5b620009b48d828e01620005db565b99505060408b015167ffffffffffffffff811115620009d857620009d762000480565b5b620009e68d828e01620006d7565b98505060608b015167ffffffffffffffff81111562000a0a5762000a0962000480565b5b62000a188d828e01620007e8565b97505060808b015167ffffffffffffffff81111562000a3c5762000a3b62000480565b5b62000a4a8d828e01620008f9565b96505060a08b015167ffffffffffffffff81111562000a6e5762000a6d62000480565b5b62000a7c8d828e01620008f9565b95505060c08b015167ffffffffffffffff81111562000aa05762000a9f62000480565b5b62000aae8d828e01620008f9565b94505060e08b015167ffffffffffffffff81111562000ad25762000ad162000480565b5b62000ae08d828e01620007e8565b9350506101008b015167ffffffffffffffff81111562000b055762000b0462000480565b5b62000b138d828e01620007e8565b9250506101208b015167ffffffffffffffff81111562000b385762000b3762000480565b5b62000b468d828e01620007e8565b9150509295989b9194979a5092959850565b7f4e487b7100000000000000000000000000000000000000000000000000000000600052601160045260246000fd5b600062000b948262000739565b915062000ba18362000739565b9250827fffffffffffffffffffffffffffffffffffffffffffffffffffffffffffffffff0382111562000bd95762000bd862000b58565b5b828201905092915050565b7f4e487b7100000000000000000000000000000000000000000000000000000000600052603260045260246000fd5b600062000c208262000739565b91507fffffffffffffffffffffffffffffffffffffffffffffffffffffffffffffffff82141562000c565762000c5562000b58565b5b600182019050919050565b7f4e487b7100000000000000000000000000000000000000000000000000000000600052602260045260246000fd5b6000600282049050600182168062000ca957607f821691505b6020821081141562000cc05762000cbf62000c61565b5b50919050565b6137e98062000cd66000396000f3fe60806040526004361061011f5760003560e01c806395d89b41116100a0578063c87b56dd11610064578063c87b56dd146103f5578063cfdd4fbd14610432578063d5abeb011461046f578063e985e9c51461049a578063f9cf80a9146104d75761011f565b806395d89b4114610331578063a0712d681461035c578063a22cb46514610378578063aa46a400146103a1578063b88d4fde146103cc5761011f565b806323b872dd116100e757806323b872dd1461021d57806342842e0e1461024657806361bf49ee1461026f5780636352211e146102b757806370a08231146102f45761011f565b806301ffc9a71461012457806306fdde0314610161578063081812fc1461018c578063095ea7b3146101c957806318160ddd146101f2575b600080fd5b34801561013057600080fd5b5061014b600480360381019061014691906122f2565b610502565b604051610158919061233a565b60405180910390f35b34801561016d57600080fd5b506101766105e4565b60405161018391906123ee565b60405180910390f35b34801561019857600080fd5b506101b360048036038101906101ae9190612446565b610676565b6040516101c091906124b4565b60405180910390f35b3480156101d557600080fd5b506101f060048036038101906101eb91906124fb565b6106fb565b005b3480156101fe57600080fd5b50610207610813565b604051610214919061254a565b60405180910390f35b34801561022957600080fd5b50610244600480360381019061023f9190612565565b610819565b005b34801561025257600080fd5b5061026d60048036038101906102689190612565565b610959565b005b34801561027b57600080fd5b5061029660048036038101906102919190612446565b610979565b6040516102ae9c9b9a999897969594939291906125d1565b60405180910390f35b3480156102c357600080fd5b506102de60048036038101906102d99190612446565b610ad1565b6040516102eb91906124b4565b60405180910390f35b34801561030057600080fd5b5061031b60048036038101906103169190612692565b610b83565b604051610328919061254a565b60405180910390f35b34801561033d57600080fd5b50610346610c3b565b60405161035391906123ee565b60405180910390f35b61037660048036038101906103719190612446565b610ccd565b005b34801561038457600080fd5b5061039f600480360381019061039a91906126eb565b610eae565b005b3480156103ad57600080fd5b506103b6610ec4565b6040516103c3919061272b565b60405180910390f35b3480156103d857600080fd5b506103f360048036038101906103ee919061287b565b610eca565b005b34801561040157600080fd5b5061041c60048036038101906104179190612446565b61100c565b60405161042991906123ee565b60405180910390f35b34801561043e57600080fd5b5061045960048036038101906104549190612446565b6110b3565b6040516104669190612a79565b60405180910390f35b34801561047b57600080fd5b506104846112e0565b604051610491919061254a565b60405180910390f35b3480156104a657600080fd5b506104c160048036038101906104bc9190612a9b565b6112e6565b6040516104ce919061233a565b60405180910390f35b3480156104e357600080fd5b506104ec61137a565b6040516104f99190612ca1565b60405180910390f35b60007f80ac58cd000000000000000000000000000000000000000000000000000000007bffffffffffffffffffffffffffffffffffffffffffffffffffffffff1916827bffffffffffffffffffffffffffffffffffffffffffffffffffffffff191614806105cd57507f5b5e139f000000000000000000000000000000000000000000000000000000007bffffffffffffffffffffffffffffffffffffffffffffffffffffffff1916827bffffffffffffffffffffffffffffffffffffffffffffffffffffffff1916145b806105dd57506105dc826115be565b5b9050919050565b6060600080546105f390612cf2565b80601f016020809104026020016040519081016040528092919081815260200182805461061f90612cf2565b801561066c5780601f106106415761010080835404028352916020019161066c565b820191906000526020600020905b81548152906001019060200180831161064f57829003601f168201915b5050505050905090565b600061068182611628565b6106c0576040517f08c379a00000000000000000000000000000000000000000000000000000000081526004016106b790612d96565b60405180910390fd5b6004600083815260200190815260200160002060009054906101000a900473ffffffffffffffffffffffffffffffffffffffff169050919050565b600061070682610ad1565b90508073ffffffffffffffffffffffffffffffffffffffff168373ffffffffffffffffffffffffffffffffffffffff161415610777576040517f08c379a000000000000000000000000000000000000000000000000000000000815260040161076e90612e28565b60405180910390fd5b8073ffffffffffffffffffffffffffffffffffffffff16610796611694565b73ffffffffffffffffffffffffffffffffffffffff1614806107c557506107c4816107bf611694565b6112e6565b5b610804576040517f08c379a00000000000000000000000000000000000000000000000000000000081526004016107fb90612eba565b60405180910390fd5b61080e838361169c565b505050565b60085481565b61082a610824611694565b82611755565b610869576040517f08c379a000000000000000000000000000000000000000000000000000000000815260040161086090612f4c565b60405180910390fd5b8160096001836108799190612f9b565b8154811061088a57610889612fcf565b5b90600052602060002090600c020160000160006101000a81548173ffffffffffffffffffffffffffffffffffffffff021916908373ffffffffffffffffffffffffffffffffffffffff1602179055508260096001836108e99190612f9b565b815481106108fa576108f9612fcf565b5b90600052602060002090600c020160010160006101000a81548173ffffffffffffffffffffffffffffffffffffffff021916908373ffffffffffffffffffffffffffffffffffffffff160217905550610954838383611833565b505050565b61097483838360405180602001604052806000815250610eca565b505050565b6009818154811061098957600080fd5b90600052602060002090600c02016000915090508060000160009054906101000a900473ffffffffffffffffffffffffffffffffffffffff16908060010160009054906101000a900473ffffffffffffffffffffffffffffffffffffffff16908060020160009054906101000a900473ffffffffffffffffffffffffffffffffffffffff1690806003015490806004018054610a2490612cf2565b80601f0160208091040260200160405190810160405280929190818152602001828054610a5090612cf2565b8015610a9d5780601f10610a7257610100808354040283529160200191610a9d565b820191906000526020600020905b815481529060010190602001808311610a8057829003601f168201915b50505050509080600501549080600601549080600701549080600801549080600901549080600a01549080600b015490508c565b6000806002600084815260200190815260200160002060009054906101000a900473ffffffffffffffffffffffffffffffffffffffff169050600073ffffffffffffffffffffffffffffffffffffffff168173ffffffffffffffffffffffffffffffffffffffff161415610b7a576040517f08c379a0000000000000000000000000000000000000000000000000000000008152600401610b7190613070565b60405180910390fd5b80915050919050565b60008073ffffffffffffffffffffffffffffffffffffffff168273ffffffffffffffffffffffffffffffffffffffff161415610bf4576040517f08c379a0000000000000000000000000000000000000000000000000000000008152600401610beb90613102565b60405180910390fd5b600360008373ffffffffffffffffffffffffffffffffffffffff1673ffffffffffffffffffffffffffffffffffffffff168152602001908152602001600020549050919050565b606060018054610c4a90612cf2565b80601f0160208091040260200160405190810160405280929190818152602001828054610c7690612cf2565b8015610cc35780601f10610c9857610100808354040283529160200191610cc3565b820191906000526020600020905b815481529060010190602001808311610ca657829003601f168201915b5050505050905090565b60006008549050600754811115610ce357600080fd5b600073ffffffffffffffffffffffffffffffffffffffff166009600184610d0a9190612f9b565b81548110610d1b57610d1a612fcf565b5b90600052602060002090600c020160000160009054906101000a900473ffffffffffffffffffffffffffffffffffffffff1673ffffffffffffffffffffffffffffffffffffffff1614610d6d57600080fd5b6009600183610d7c9190612f9b565b81548110610d8d57610d8c612fcf565b5b90600052602060002090600c020160050154341015610dab57600080fd5b336009600184610dbb9190612f9b565b81548110610dcc57610dcb612fcf565b5b90600052602060002090600c020160000160006101000a81548173ffffffffffffffffffffffffffffffffffffffff021916908373ffffffffffffffffffffffffffffffffffffffff160217905550336009600184610e2b9190612f9b565b81548110610e3c57610e3b612fcf565b5b90600052602060002090600c020160020160006101000a81548173ffffffffffffffffffffffffffffffffffffffff021916908373ffffffffffffffffffffffffffffffffffffffff1602179055506001600854610e9a9190613122565b600881905550610eaa3383611a9a565b5050565b610ec0610eb9611694565b8383611ab8565b5050565b60065481565b610edb610ed5611694565b83611755565b610f1a576040517f08c379a0000000000000000000000000000000000000000000000000000000008152600401610f1190612f4c565b60405180910390fd5b826009600184610f2a9190612f9b565b81548110610f3b57610f3a612fcf565b5b90600052602060002090600c020160000160006101000a81548173ffffffffffffffffffffffffffffffffffffffff021916908373ffffffffffffffffffffffffffffffffffffffff160217905550836009600184610f9a9190612f9b565b81548110610fab57610faa612fcf565b5b90600052602060002090600c020160010160006101000a81548173ffffffffffffffffffffffffffffffffffffffff021916908373ffffffffffffffffffffffffffffffffffffffff16021790555061100684848484611c25565b50505050565b606061101782611628565b611056576040517f08c379a000000000000000000000000000000000000000000000000000000000815260040161104d906131ea565b60405180910390fd5b6000611060611c81565b9050600081511161108057604051806020016040528060008152506110ab565b8061108a84611c98565b60405160200161109b929190613246565b6040516020818303038152906040525b915050919050565b6110bb6121e3565b60096001836110ca9190612f9b565b815481106110db576110da612fcf565b5b90600052602060002090600c0201604051806101800160405290816000820160009054906101000a900473ffffffffffffffffffffffffffffffffffffffff1673ffffffffffffffffffffffffffffffffffffffff1673ffffffffffffffffffffffffffffffffffffffff1681526020016001820160009054906101000a900473ffffffffffffffffffffffffffffffffffffffff1673ffffffffffffffffffffffffffffffffffffffff1673ffffffffffffffffffffffffffffffffffffffff1681526020016002820160009054906101000a900473ffffffffffffffffffffffffffffffffffffffff1673ffffffffffffffffffffffffffffffffffffffff1673ffffffffffffffffffffffffffffffffffffffff1681526020016003820154815260200160048201805461121190612cf2565b80601f016020809104026020016040519081016040528092919081815260200182805461123d90612cf2565b801561128a5780601f1061125f5761010080835404028352916020019161128a565b820191906000526020600020905b81548152906001019060200180831161126d57829003601f168201915b505050505081526020016005820154815260200160068201548152602001600782015481526020016008820154815260200160098201548152602001600a8201548152602001600b820154815250509050919050565b60075481565b6000600560008473ffffffffffffffffffffffffffffffffffffffff1673ffffffffffffffffffffffffffffffffffffffff16815260200190815260200160002060008373ffffffffffffffffffffffffffffffffffffffff1673ffffffffffffffffffffffffffffffffffffffff16815260200190815260200160002060009054906101000a900460ff16905092915050565b60606009805480602002602001604051908101604052809291908181526020016000905b828210156115b557838290600052602060002090600c0201604051806101800160405290816000820160009054906101000a900473ffffffffffffffffffffffffffffffffffffffff1673ffffffffffffffffffffffffffffffffffffffff1673ffffffffffffffffffffffffffffffffffffffff1681526020016001820160009054906101000a900473ffffffffffffffffffffffffffffffffffffffff1673ffffffffffffffffffffffffffffffffffffffff1673ffffffffffffffffffffffffffffffffffffffff1681526020016002820160009054906101000a900473ffffffffffffffffffffffffffffffffffffffff1673ffffffffffffffffffffffffffffffffffffffff1673ffffffffffffffffffffffffffffffffffffffff168152602001600382015481526020016004820180546114de90612cf2565b80601f016020809104026020016040519081016040528092919081815260200182805461150a90612cf2565b80156115575780601f1061152c57610100808354040283529160200191611557565b820191906000526020600020905b81548152906001019060200180831161153a57829003601f168201915b505050505081526020016005820154815260200160068201548152602001600782015481526020016008820154815260200160098201548152602001600a8201548152602001600b820154815250508152602001906001019061139e565b50505050905090565b60007f01ffc9a7000000000000000000000000000000000000000000000000000000007bffffffffffffffffffffffffffffffffffffffffffffffffffffffff1916827bffffffffffffffffffffffffffffffffffffffffffffffffffffffff1916149050919050565b60008073ffffffffffffffffffffffffffffffffffffffff166002600084815260200190815260200160002060009054906101000a900473ffffffffffffffffffffffffffffffffffffffff1673ffffffffffffffffffffffffffffffffffffffff1614159050919050565b600033905090565b816004600083815260200190815260200160002060006101000a81548173ffffffffffffffffffffffffffffffffffffffff021916908373ffffffffffffffffffffffffffffffffffffffff160217905550808273ffffffffffffffffffffffffffffffffffffffff1661170f83610ad1565b73ffffffffffffffffffffffffffffffffffffffff167f8c5be1e5ebec7d5bd14f71427d1e84f3dd0314c0f7b2291e5b200ac8c7c3b92560405160405180910390a45050565b600061176082611628565b61179f576040517f08c379a0000000000000000000000000000000000000000000000000000000008152600401611796906132dc565b60405180910390fd5b60006117aa83610ad1565b90508073ffffffffffffffffffffffffffffffffffffffff168473ffffffffffffffffffffffffffffffffffffffff16148061181957508373ffffffffffffffffffffffffffffffffffffffff1661180184610676565b73ffffffffffffffffffffffffffffffffffffffff16145b8061182a575061182981856112e6565b5b91505092915050565b8273ffffffffffffffffffffffffffffffffffffffff1661185382610ad1565b73ffffffffffffffffffffffffffffffffffffffff16146118a9576040517f08c379a00000000000000000000000000000000000000000000000000000000081526004016118a09061336e565b60405180910390fd5b600073ffffffffffffffffffffffffffffffffffffffff168273ffffffffffffffffffffffffffffffffffffffff161415611919576040517f08c379a000000000000000000000000000000000000000000000000000000000815260040161191090613400565b60405180910390fd5b611924838383611df9565b61192f60008261169c565b6001600360008573ffffffffffffffffffffffffffffffffffffffff1673ffffffffffffffffffffffffffffffffffffffff168152602001908152602001600020600082825461197f9190612f9b565b925050819055506001600360008473ffffffffffffffffffffffffffffffffffffffff1673ffffffffffffffffffffffffffffffffffffffff16815260200190815260200160002060008282546119d69190613122565b92505081905550816002600083815260200190815260200160002060006101000a81548173ffffffffffffffffffffffffffffffffffffffff021916908373ffffffffffffffffffffffffffffffffffffffff160217905550808273ffffffffffffffffffffffffffffffffffffffff168473ffffffffffffffffffffffffffffffffffffffff167fddf252ad1be2c89b69c2b068fc378daa952ba7f163c4a11628f55a4df523b3ef60405160405180910390a4611a95838383611dfe565b505050565b611ab4828260405180602001604052806000815250611e03565b5050565b8173ffffffffffffffffffffffffffffffffffffffff168373ffffffffffffffffffffffffffffffffffffffff161415611b27576040517f08c379a0000000000000000000000000000000000000000000000000000000008152600401611b1e9061346c565b60405180910390fd5b80600560008573ffffffffffffffffffffffffffffffffffffffff1673ffffffffffffffffffffffffffffffffffffffff16815260200190815260200160002060008473ffffffffffffffffffffffffffffffffffffffff1673ffffffffffffffffffffffffffffffffffffffff16815260200190815260200160002060006101000a81548160ff0219169083151502179055508173ffffffffffffffffffffffffffffffffffffffff168373ffffffffffffffffffffffffffffffffffffffff167f17307eab39ab6107e8899845ad3d59bd9653f200f220920489ca2b5937696c3183604051611c18919061233a565b60405180910390a3505050565b611c30848484611833565b611c3c84848484611e5e565b611c7b576040517f08c379a0000000000000000000000000000000000000000000000000000000008152600401611c72906134fe565b60405180910390fd5b50505050565b606060405180602001604052806000815250905090565b60606000821415611ce0576040518060400160405280600181526020017f30000000000000000000000000000000000000000000000000000000000000008152509050611df4565b600082905060005b60008214611d12578080611cfb9061351e565b915050600a82611d0b9190613596565b9150611ce8565b60008167ffffffffffffffff811115611d2e57611d2d612750565b5b6040519080825280601f01601f191660200182016040528015611d605781602001600182028036833780820191505090505b5090505b60008514611ded57600182611d799190612f9b565b9150600a85611d8891906135c7565b6030611d949190613122565b60f81b818381518110611daa57611da9612fcf565b5b60200101907effffffffffffffffffffffffffffffffffffffffffffffffffffffffffffff1916908160001a905350600a85611de69190613596565b9450611d64565b8093505050505b919050565b505050565b505050565b611e0d8383611fe6565b611e1a6000848484611e5e565b611e59576040517f08c379a0000000000000000000000000000000000000000000000000000000008152600401611e50906134fe565b60405180910390fd5b505050565b6000611e7f8473ffffffffffffffffffffffffffffffffffffffff166121c0565b15611fd9578373ffffffffffffffffffffffffffffffffffffffff1663150b7a02611ea8611694565b8786866040518563ffffffff1660e01b8152600401611eca949392919061364d565b6020604051808303816000875af1925050508015611f0657506040513d601f19601f82011682018060405250810190611f0391906136ae565b60015b611f89573d8060008114611f36576040519150601f19603f3d011682016040523d82523d6000602084013e611f3b565b606091505b50600081511415611f81576040517f08c379a0000000000000000000000000000000000000000000000000000000008152600401611f78906134fe565b60405180910390fd5b805181602001fd5b63150b7a0260e01b7bffffffffffffffffffffffffffffffffffffffffffffffffffffffff1916817bffffffffffffffffffffffffffffffffffffffffffffffffffffffff191614915050611fde565b600190505b949350505050565b600073ffffffffffffffffffffffffffffffffffffffff168273ffffffffffffffffffffffffffffffffffffffff161415612056576040517f08c379a000000000000000000000000000000000000000000000000000000000815260040161204d90613727565b60405180910390fd5b61205f81611628565b1561209f576040517f08c379a000000000000000000000000000000000000000000000000000000000815260040161209690613793565b60405180910390fd5b6120ab60008383611df9565b6001600360008473ffffffffffffffffffffffffffffffffffffffff1673ffffffffffffffffffffffffffffffffffffffff16815260200190815260200160002060008282546120fb9190613122565b92505081905550816002600083815260200190815260200160002060006101000a81548173ffffffffffffffffffffffffffffffffffffffff021916908373ffffffffffffffffffffffffffffffffffffffff160217905550808273ffffffffffffffffffffffffffffffffffffffff16600073ffffffffffffffffffffffffffffffffffffffff167fddf252ad1be2c89b69c2b068fc378daa952ba7f163c4a11628f55a4df523b3ef60405160405180910390a46121bc60008383611dfe565b5050565b6000808273ffffffffffffffffffffffffffffffffffffffff163b119050919050565b604051806101800160405280600073ffffffffffffffffffffffffffffffffffffffff168152602001600073ffffffffffffffffffffffffffffffffffffffff168152602001600073ffffffffffffffffffffffffffffffffffffffff1681526020016000815260200160608152602001600081526020016000815260200160008152602001600081526020016000815260200160008152602001600081525090565b6000604051905090565b600080fd5b600080fd5b60007fffffffff0000000000000000000000000000000000000000000000000000000082169050919050565b6122cf8161229a565b81146122da57600080fd5b50565b6000813590506122ec816122c6565b92915050565b60006020828403121561230857612307612290565b5b6000612316848285016122dd565b91505092915050565b60008115159050919050565b6123348161231f565b82525050565b600060208201905061234f600083018461232b565b92915050565b600081519050919050565b600082825260208201905092915050565b60005b8381101561238f578082015181840152602081019050612374565b8381111561239e576000848401525b50505050565b6000601f19601f8301169050919050565b60006123c082612355565b6123ca8185612360565b93506123da818560208601612371565b6123e3816123a4565b840191505092915050565b6000602082019050818103600083015261240881846123b5565b905092915050565b6000819050919050565b61242381612410565b811461242e57600080fd5b50565b6000813590506124408161241a565b92915050565b60006020828403121561245c5761245b612290565b5b600061246a84828501612431565b91505092915050565b600073ffffffffffffffffffffffffffffffffffffffff82169050919050565b600061249e82612473565b9050919050565b6124ae81612493565b82525050565b60006020820190506124c960008301846124a5565b92915050565b6124d881612493565b81146124e357600080fd5b50565b6000813590506124f5816124cf565b92915050565b6000806040838503121561251257612511612290565b5b6000612520858286016124e6565b925050602061253185828601612431565b9150509250929050565b61254481612410565b82525050565b600060208201905061255f600083018461253b565b92915050565b60008060006060848603121561257e5761257d612290565b5b600061258c868287016124e6565b935050602061259d868287016124e6565b92505060406125ae86828701612431565b9150509250925092565b6000819050919050565b6125cb816125b8565b82525050565b6000610180820190506125e7600083018f6124a5565b6125f4602083018e6124a5565b612601604083018d6124a5565b61260e606083018c61253b565b8181036080830152612620818b6123b5565b905061262f60a083018a61253b565b61263c60c08301896125c2565b61264960e08301886125c2565b6126576101008301876125c2565b61266561012083018661253b565b61267361014083018561253b565b61268161016083018461253b565b9d9c50505050505050505050505050565b6000602082840312156126a8576126a7612290565b5b60006126b6848285016124e6565b91505092915050565b6126c88161231f565b81146126d357600080fd5b50565b6000813590506126e5816126bf565b92915050565b6000806040838503121561270257612701612290565b5b6000612710858286016124e6565b9250506020612721858286016126d6565b9150509250929050565b600060208201905061274060008301846125c2565b92915050565b600080fd5b600080fd5b7f4e487b7100000000000000000000000000000000000000000000000000000000600052604160045260246000fd5b612788826123a4565b810181811067ffffffffffffffff821117156127a7576127a6612750565b5b80604052505050565b60006127ba612286565b90506127c6828261277f565b919050565b600067ffffffffffffffff8211156127e6576127e5612750565b5b6127ef826123a4565b9050602081019050919050565b82818337600083830152505050565b600061281e612819846127cb565b6127b0565b90508281526020810184848401111561283a5761283961274b565b5b6128458482856127fc565b509392505050565b600082601f83011261286257612861612746565b5b813561287284826020860161280b565b91505092915050565b6000806000806080858703121561289557612894612290565b5b60006128a3878288016124e6565b94505060206128b4878288016124e6565b93505060406128c587828801612431565b925050606085013567ffffffffffffffff8111156128e6576128e5612295565b5b6128f28782880161284d565b91505092959194509250565b61290781612493565b82525050565b61291681612410565b82525050565b600082825260208201905092915050565b600061293882612355565b612942818561291c565b9350612952818560208601612371565b61295b816123a4565b840191505092915050565b61296f816125b8565b82525050565b60006101808301600083015161298e60008601826128fe565b5060208301516129a160208601826128fe565b5060408301516129b460408601826128fe565b5060608301516129c7606086018261290d565b50608083015184820360808601526129df828261292d565b91505060a08301516129f460a086018261290d565b5060c0830151612a0760c0860182612966565b5060e0830151612a1a60e0860182612966565b50610100830151612a2f610100860182612966565b50610120830151612a4461012086018261290d565b50610140830151612a5961014086018261290d565b50610160830151612a6e61016086018261290d565b508091505092915050565b60006020820190508181036000830152612a938184612975565b905092915050565b60008060408385031215612ab257612ab1612290565b5b6000612ac0858286016124e6565b9250506020612ad1858286016124e6565b9150509250929050565b600081519050919050565b600082825260208201905092915050565b6000819050602082019050919050565b600061018083016000830151612b2060008601826128fe565b506020830151612b3360208601826128fe565b506040830151612b4660408601826128fe565b506060830151612b59606086018261290d565b5060808301518482036080860152612b71828261292d565b91505060a0830151612b8660a086018261290d565b5060c0830151612b9960c0860182612966565b5060e0830151612bac60e0860182612966565b50610100830151612bc1610100860182612966565b50610120830151612bd661012086018261290d565b50610140830151612beb61014086018261290d565b50610160830151612c0061016086018261290d565b508091505092915050565b6000612c178383612b07565b905092915050565b6000602082019050919050565b6000612c3782612adb565b612c418185612ae6565b935083602082028501612c5385612af7565b8060005b85811015612c8f5784840389528151612c708582612c0b565b9450612c7b83612c1f565b925060208a01995050600181019050612c57565b50829750879550505050505092915050565b60006020820190508181036000830152612cbb8184612c2c565b905092915050565b7f4e487b7100000000000000000000000000000000000000000000000000000000600052602260045260246000fd5b60006002820490506001821680612d0a57607f821691505b60208210811415612d1e57612d1d612cc3565b5b50919050565b7f4552433732313a20617070726f76656420717565727920666f72206e6f6e657860008201527f697374656e7420746f6b656e0000000000000000000000000000000000000000602082015250565b6000612d80602c83612360565b9150612d8b82612d24565b604082019050919050565b60006020820190508181036000830152612daf81612d73565b9050919050565b7f4552433732313a20617070726f76616c20746f2063757272656e74206f776e6560008201527f7200000000000000000000000000000000000000000000000000000000000000602082015250565b6000612e12602183612360565b9150612e1d82612db6565b604082019050919050565b60006020820190508181036000830152612e4181612e05565b9050919050565b7f4552433732313a20617070726f76652063616c6c6572206973206e6f74206f7760008201527f6e6572206e6f7220617070726f76656420666f7220616c6c0000000000000000602082015250565b6000612ea4603883612360565b9150612eaf82612e48565b604082019050919050565b60006020820190508181036000830152612ed381612e97565b9050919050565b7f4552433732313a207472616e736665722063616c6c6572206973206e6f74206f60008201527f776e6572206e6f7220617070726f766564000000000000000000000000000000602082015250565b6000612f36603183612360565b9150612f4182612eda565b604082019050919050565b60006020820190508181036000830152612f6581612f29565b9050919050565b7f4e487b7100000000000000000000000000000000000000000000000000000000600052601160045260246000fd5b6000612fa682612410565b9150612fb183612410565b925082821015612fc457612fc3612f6c565b5b828203905092915050565b7f4e487b7100000000000000000000000000000000000000000000000000000000600052603260045260246000fd5b7f4552433732313a206f776e657220717565727920666f72206e6f6e657869737460008201527f656e7420746f6b656e0000000000000000000000000000000000000000000000602082015250565b600061305a602983612360565b915061306582612ffe565b604082019050919050565b600060208201905081810360008301526130898161304d565b9050919050565b7f4552433732313a2062616c616e636520717565727920666f7220746865207a6560008201527f726f206164647265737300000000000000000000000000000000000000000000602082015250565b60006130ec602a83612360565b91506130f782613090565b604082019050919050565b6000602082019050818103600083015261311b816130df565b9050919050565b600061312d82612410565b915061313883612410565b9250827fffffffffffffffffffffffffffffffffffffffffffffffffffffffffffffffff0382111561316d5761316c612f6c565b5b828201905092915050565b7f4552433732314d657461646174613a2055524920717565727920666f72206e6f60008201527f6e6578697374656e7420746f6b656e0000000000000000000000000000000000602082015250565b60006131d4602f83612360565b91506131df82613178565b604082019050919050565b60006020820190508181036000830152613203816131c7565b9050919050565b600081905092915050565b600061322082612355565b61322a818561320a565b935061323a818560208601612371565b80840191505092915050565b60006132528285613215565b915061325e8284613215565b91508190509392505050565b7f4552433732313a206f70657261746f7220717565727920666f72206e6f6e657860008201527f697374656e7420746f6b656e0000000000000000000000000000000000000000602082015250565b60006132c6602c83612360565b91506132d18261326a565b604082019050919050565b600060208201905081810360008301526132f5816132b9565b9050919050565b7f4552433732313a207472616e736665722066726f6d20696e636f72726563742060008201527f6f776e6572000000000000000000000000000000000000000000000000000000602082015250565b6000613358602583612360565b9150613363826132fc565b604082019050919050565b600060208201905081810360008301526133878161334b565b9050919050565b7f4552433732313a207472616e7366657220746f20746865207a65726f2061646460008201527f7265737300000000000000000000000000000000000000000000000000000000602082015250565b60006133ea602483612360565b91506133f58261338e565b604082019050919050565b60006020820190508181036000830152613419816133dd565b9050919050565b7f4552433732313a20617070726f766520746f2063616c6c657200000000000000600082015250565b6000613456601983612360565b915061346182613420565b602082019050919050565b6000602082019050818103600083015261348581613449565b9050919050565b7f4552433732313a207472616e7366657220746f206e6f6e20455243373231526560008201527f63656976657220696d706c656d656e7465720000000000000000000000000000602082015250565b60006134e8603283612360565b91506134f38261348c565b604082019050919050565b60006020820190508181036000830152613517816134db565b9050919050565b600061352982612410565b91507fffffffffffffffffffffffffffffffffffffffffffffffffffffffffffffffff82141561355c5761355b612f6c565b5b600182019050919050565b7f4e487b7100000000000000000000000000000000000000000000000000000000600052601260045260246000fd5b60006135a182612410565b91506135ac83612410565b9250826135bc576135bb613567565b5b828204905092915050565b60006135d282612410565b91506135dd83612410565b9250826135ed576135ec613567565b5b828206905092915050565b600081519050919050565b600082825260208201905092915050565b600061361f826135f8565b6136298185613603565b9350613639818560208601612371565b613642816123a4565b840191505092915050565b600060808201905061366260008301876124a5565b61366f60208301866124a5565b61367c604083018561253b565b818103606083015261368e8184613614565b905095945050505050565b6000815190506136a8816122c6565b92915050565b6000602082840312156136c4576136c3612290565b5b60006136d284828501613699565b91505092915050565b7f4552433732313a206d696e7420746f20746865207a65726f2061646472657373600082015250565b6000613711602083612360565b915061371c826136db565b602082019050919050565b6000602082019050818103600083015261374081613704565b9050919050565b7f4552433732313a20746f6b656e20616c7265616479206d696e74656400000000600082015250565b600061377d601c83612360565b915061378882613747565b602082019050919050565b600060208201905081810360008301526137ac81613770565b905091905056fea26469706673582212201675ca141f1897cc1bdbf951bc5d70b49ae9a16ebd2e5a9a4b9fc1c56830d1a464736f6c634300080b0033",
  "linkReferences": {},
  "deployedLinkReferences": {}
}